{
  "_format": "hh-sol-artifact-1",
  "contractName": "RezerveExchange",
  "sourceName": "contracts/reserveExchange.sol",
  "abi": [
    {
      "inputs": [],
      "stateMutability": "nonpayable",
      "type": "constructor"
    },
    {
      "anonymous": false,
      "inputs": [
        {
          "indexed": true,
          "internalType": "address",
          "name": "previousOwner",
          "type": "address"
        },
        {
          "indexed": true,
          "internalType": "address",
          "name": "newOwner",
          "type": "address"
        }
      ],
      "name": "OwnershipTransferred",
      "type": "event"
    },
    {
      "inputs": [],
      "name": "DaiAddress",
      "outputs": [
        {
          "internalType": "address",
          "name": "",
          "type": "address"
        }
      ],
      "stateMutability": "view",
      "type": "function"
    },
    {
      "inputs": [],
      "name": "EmergencyAddress",
      "outputs": [
        {
          "internalType": "address",
          "name": "",
          "type": "address"
        }
      ],
      "stateMutability": "view",
      "type": "function"
    },
    {
      "inputs": [],
      "name": "ReserveAddress",
      "outputs": [
        {
          "internalType": "address",
          "name": "",
          "type": "address"
        }
      ],
      "stateMutability": "view",
      "type": "function"
    },
    {
      "inputs": [],
      "name": "burnAddress",
      "outputs": [
        {
          "internalType": "address",
          "name": "",
          "type": "address"
        }
      ],
      "stateMutability": "view",
      "type": "function"
    },
    {
      "inputs": [],
      "name": "currentSupply",
      "outputs": [
        {
          "internalType": "uint256",
          "name": "",
          "type": "uint256"
        }
      ],
      "stateMutability": "view",
      "type": "function"
    },
    {
      "inputs": [],
      "name": "dai",
      "outputs": [
        {
          "internalType": "contract IERC20",
          "name": "",
          "type": "address"
        }
      ],
      "stateMutability": "view",
      "type": "function"
    },
    {
      "inputs": [],
      "name": "daiBalance",
      "outputs": [
        {
          "internalType": "uint256",
          "name": "",
          "type": "uint256"
        }
      ],
      "stateMutability": "view",
      "type": "function"
    },
    {
      "inputs": [
        {
          "internalType": "uint256",
          "name": "_amount",
          "type": "uint256"
        }
      ],
      "name": "exchangeAmount",
      "outputs": [
        {
          "internalType": "uint256",
          "name": "",
          "type": "uint256"
        }
      ],
      "stateMutability": "view",
      "type": "function"
    },
    {
      "inputs": [
        {
          "internalType": "uint256",
          "name": "_amount",
          "type": "uint256"
        }
      ],
      "name": "exchangeReserve",
      "outputs": [],
      "stateMutability": "nonpayable",
      "type": "function"
    },
    {
      "inputs": [],
      "name": "floorPrice",
      "outputs": [
        {
          "internalType": "uint256",
          "name": "",
          "type": "uint256"
        }
      ],
      "stateMutability": "view",
      "type": "function"
    },
    {
      "inputs": [],
      "name": "flush",
      "outputs": [],
      "stateMutability": "nonpayable",
      "type": "function"
    },
    {
      "inputs": [],
      "name": "owner",
      "outputs": [
        {
          "internalType": "address",
          "name": "",
          "type": "address"
        }
      ],
      "stateMutability": "view",
      "type": "function"
    },
    {
      "inputs": [],
      "name": "renounceOwnership",
      "outputs": [],
      "stateMutability": "nonpayable",
      "type": "function"
    },
    {
      "inputs": [
        {
          "internalType": "address",
          "name": "_address",
          "type": "address"
        }
      ],
      "name": "setReserve",
      "outputs": [],
      "stateMutability": "nonpayable",
      "type": "function"
    },
    {
      "inputs": [],
      "name": "token",
      "outputs": [
        {
          "internalType": "contract IERC20",
          "name": "",
          "type": "address"
        }
      ],
      "stateMutability": "view",
      "type": "function"
    },
    {
      "inputs": [
        {
          "internalType": "address",
          "name": "newOwner",
          "type": "address"
        }
      ],
      "name": "transferOwnership",
      "outputs": [],
      "stateMutability": "nonpayable",
      "type": "function"
    }
  ],
  "bytecode": "0x608060405234801561001057600080fd5b5060006100216102b860201b60201c565b9050806000806101000a81548173ffffffffffffffffffffffffffffffffffffffff021916908373ffffffffffffffffffffffffffffffffffffffff1602179055508073ffffffffffffffffffffffffffffffffffffffff16600073ffffffffffffffffffffffffffffffffffffffff167f8be0079c531659141344cd1fd0a4f28419497f9722a3daafe3b4186f6b6457e060405160405180910390a3507395013734bac94203c5e8c6a44a608db4fc6ffc8e600460006101000a81548173ffffffffffffffffffffffffffffffffffffffff021916908373ffffffffffffffffffffffffffffffffffffffff160217905550600460009054906101000a900473ffffffffffffffffffffffffffffffffffffffff16600160006101000a81548173ffffffffffffffffffffffffffffffffffffffff021916908373ffffffffffffffffffffffffffffffffffffffff16021790555073c9de911d7e5ffb9b54c73e64b56abcbd2793ab0d600560006101000a81548173ffffffffffffffffffffffffffffffffffffffff021916908373ffffffffffffffffffffffffffffffffffffffff160217905550600560009054906101000a900473ffffffffffffffffffffffffffffffffffffffff16600260006101000a81548173ffffffffffffffffffffffffffffffffffffffff021916908373ffffffffffffffffffffffffffffffffffffffff16021790555033600360006101000a81548173ffffffffffffffffffffffffffffffffffffffff021916908373ffffffffffffffffffffffffffffffffffffffff16021790555061dead600660006101000a81548173ffffffffffffffffffffffffffffffffffffffff021916908373ffffffffffffffffffffffffffffffffffffffff1602179055506102c0565b600033905090565b6115f1806102cf6000396000f3fe608060405234801561001057600080fd5b50600436106101005760003560e01c8063a17cf4b711610097578063ee2a941111610066578063ee2a941114610253578063f2fde38b14610271578063f4b9fa751461028d578063fc0c546a146102ab57610100565b8063a17cf4b7146101cb578063a35f84af146101fb578063a5a2286b14610219578063bb180fdb1461023757610100565b8063771282f6116100d3578063771282f6146101555780638da5cb5b146101735780639363c812146101915780639cecc80a146101af57610100565b80630e7bb707146101055780636b9f96ea1461012357806370d5ae051461012d578063715018a61461014b575b600080fd5b61010d6102c9565b60405161011a919061127d565b60405180910390f35b61012b61037b565b005b6101356104f9565b6040516101429190611145565b60405180910390f35b61015361051f565b005b61015d610659565b60405161016a919061127d565b60405180910390f35b61017b6107de565b6040516101889190611145565b60405180910390f35b610199610807565b6040516101a6919061127d565b60405180910390f35b6101c960048036038101906101c49190610f9f565b61082f565b005b6101e560048036038101906101e09190610ff9565b6109d6565b6040516101f2919061127d565b60405180910390f35b6102036109f2565b6040516102109190611145565b60405180910390f35b610221610a18565b60405161022e9190611145565b60405180910390f35b610251600480360381019061024c9190610ff9565b610a3e565b005b61025b610bcd565b6040516102689190611145565b60405180910390f35b61028b60048036038101906102869190610f9f565b610bf3565b005b610295610d9c565b6040516102a291906111c0565b60405180910390f35b6102b3610dc2565b6040516102c091906111c0565b60405180910390f35b6000600260009054906101000a900473ffffffffffffffffffffffffffffffffffffffff1673ffffffffffffffffffffffffffffffffffffffff166370a08231306040518263ffffffff1660e01b81526004016103269190611145565b60206040518083038186803b15801561033e57600080fd5b505afa158015610352573d6000803e3d6000fd5b505050506040513d601f19601f820116820180604052508101906103769190611026565b905090565b600160009054906101000a900473ffffffffffffffffffffffffffffffffffffffff1673ffffffffffffffffffffffffffffffffffffffff1663a9059cbb600660009054906101000a900473ffffffffffffffffffffffffffffffffffffffff16600160009054906101000a900473ffffffffffffffffffffffffffffffffffffffff1673ffffffffffffffffffffffffffffffffffffffff166370a08231306040518263ffffffff1660e01b81526004016104379190611145565b60206040518083038186803b15801561044f57600080fd5b505afa158015610463573d6000803e3d6000fd5b505050506040513d601f19601f820116820180604052508101906104879190611026565b6040518363ffffffff1660e01b81526004016104a4929190611197565b602060405180830381600087803b1580156104be57600080fd5b505af11580156104d2573d6000803e3d6000fd5b505050506040513d601f19601f820116820180604052508101906104f69190610fcc565b50565b600660009054906101000a900473ffffffffffffffffffffffffffffffffffffffff1681565b610527610de8565b73ffffffffffffffffffffffffffffffffffffffff166105456107de565b73ffffffffffffffffffffffffffffffffffffffff161461059b576040517f08c379a00000000000000000000000000000000000000000000000000000000081526004016105929061123d565b60405180910390fd5b600073ffffffffffffffffffffffffffffffffffffffff1660008054906101000a900473ffffffffffffffffffffffffffffffffffffffff1673ffffffffffffffffffffffffffffffffffffffff167f8be0079c531659141344cd1fd0a4f28419497f9722a3daafe3b4186f6b6457e060405160405180910390a360008060006101000a81548173ffffffffffffffffffffffffffffffffffffffff021916908373ffffffffffffffffffffffffffffffffffffffff160217905550565b60006107d9600160009054906101000a900473ffffffffffffffffffffffffffffffffffffffff1673ffffffffffffffffffffffffffffffffffffffff166370a08231600660009054906101000a900473ffffffffffffffffffffffffffffffffffffffff166040518263ffffffff1660e01b81526004016106db9190611145565b60206040518083038186803b1580156106f357600080fd5b505afa158015610707573d6000803e3d6000fd5b505050506040513d601f19601f8201168201806040525081019061072b9190611026565b600160009054906101000a900473ffffffffffffffffffffffffffffffffffffffff1673ffffffffffffffffffffffffffffffffffffffff166318160ddd6040518163ffffffff1660e01b815260040160206040518083038186803b15801561079357600080fd5b505afa1580156107a7573d6000803e3d6000fd5b505050506040513d601f19601f820116820180604052508101906107cb9190611026565b610df090919063ffffffff16565b905090565b60008060009054906101000a900473ffffffffffffffffffffffffffffffffffffffff16905090565b600061082a610814610659565b61081c6102c9565b610e3a90919063ffffffff16565b905090565b600360009054906101000a900473ffffffffffffffffffffffffffffffffffffffff1673ffffffffffffffffffffffffffffffffffffffff163373ffffffffffffffffffffffffffffffffffffffff16146108bf576040517f08c379a00000000000000000000000000000000000000000000000000000000081526004016108b6906111fd565b60405180910390fd5b600073ffffffffffffffffffffffffffffffffffffffff168173ffffffffffffffffffffffffffffffffffffffff16141561092f576040517f08c379a00000000000000000000000000000000000000000000000000000000081526004016109269061125d565b60405180910390fd5b80600460006101000a81548173ffffffffffffffffffffffffffffffffffffffff021916908373ffffffffffffffffffffffffffffffffffffffff160217905550600460009054906101000a900473ffffffffffffffffffffffffffffffffffffffff16600160006101000a81548173ffffffffffffffffffffffffffffffffffffffff021916908373ffffffffffffffffffffffffffffffffffffffff16021790555050565b60006109e0610807565b826109eb91906112e5565b9050919050565b600360009054906101000a900473ffffffffffffffffffffffffffffffffffffffff1681565b600460009054906101000a900473ffffffffffffffffffffffffffffffffffffffff1681565b600160009054906101000a900473ffffffffffffffffffffffffffffffffffffffff1673ffffffffffffffffffffffffffffffffffffffff166323b872dd33600660009054906101000a900473ffffffffffffffffffffffffffffffffffffffff16846040518463ffffffff1660e01b8152600401610abf93929190611160565b602060405180830381600087803b158015610ad957600080fd5b505af1158015610aed573d6000803e3d6000fd5b505050506040513d601f19601f82011682018060405250810190610b119190610fcc565b50600260009054906101000a900473ffffffffffffffffffffffffffffffffffffffff1673ffffffffffffffffffffffffffffffffffffffff1663a9059cbb33610b5a846109d6565b6040518363ffffffff1660e01b8152600401610b77929190611197565b602060405180830381600087803b158015610b9157600080fd5b505af1158015610ba5573d6000803e3d6000fd5b505050506040513d601f19601f82011682018060405250810190610bc99190610fcc565b5050565b600560009054906101000a900473ffffffffffffffffffffffffffffffffffffffff1681565b610bfb610de8565b73ffffffffffffffffffffffffffffffffffffffff16610c196107de565b73ffffffffffffffffffffffffffffffffffffffff1614610c6f576040517f08c379a0000000000000000000000000000000000000000000000000000000008152600401610c669061123d565b60405180910390fd5b600073ffffffffffffffffffffffffffffffffffffffff168173ffffffffffffffffffffffffffffffffffffffff161415610cdf576040517f08c379a0000000000000000000000000000000000000000000000000000000008152600401610cd69061121d565b60405180910390fd5b8073ffffffffffffffffffffffffffffffffffffffff1660008054906101000a900473ffffffffffffffffffffffffffffffffffffffff1673ffffffffffffffffffffffffffffffffffffffff167f8be0079c531659141344cd1fd0a4f28419497f9722a3daafe3b4186f6b6457e060405160405180910390a3806000806101000a81548173ffffffffffffffffffffffffffffffffffffffff021916908373ffffffffffffffffffffffffffffffffffffffff16021790555050565b600260009054906101000a900473ffffffffffffffffffffffffffffffffffffffff1681565b600160009054906101000a900473ffffffffffffffffffffffffffffffffffffffff1681565b600033905090565b6000610e3283836040518060400160405280601e81526020017f536166654d6174683a207375627472616374696f6e206f766572666c6f770000815250610e84565b905092915050565b6000610e7c83836040518060400160405280601a81526020017f536166654d6174683a206469766973696f6e206279207a65726f000000000000815250610ee8565b905092915050565b6000838311158290610ecc576040517f08c379a0000000000000000000000000000000000000000000000000000000008152600401610ec391906111db565b60405180910390fd5b5060008385610edb919061133f565b9050809150509392505050565b60008083118290610f2f576040517f08c379a0000000000000000000000000000000000000000000000000000000008152600401610f2691906111db565b60405180910390fd5b5060008385610f3e91906112b4565b9050809150509392505050565b600081359050610f5a81611576565b92915050565b600081519050610f6f8161158d565b92915050565b600081359050610f84816115a4565b92915050565b600081519050610f99816115a4565b92915050565b600060208284031215610fb557610fb4611470565b5b6000610fc384828501610f4b565b91505092915050565b600060208284031215610fe257610fe1611470565b5b6000610ff084828501610f60565b91505092915050565b60006020828403121561100f5761100e611470565b5b600061101d84828501610f75565b91505092915050565b60006020828403121561103c5761103b611470565b5b600061104a84828501610f8a565b91505092915050565b61105c81611373565b82525050565b61106b816113bb565b82525050565b600061107c82611298565b61108681856112a3565b93506110968185602086016113df565b61109f81611475565b840191505092915050565b60006110b76017836112a3565b91506110c282611486565b602082019050919050565b60006110da6026836112a3565b91506110e5826114af565b604082019050919050565b60006110fd6020836112a3565b9150611108826114fe565b602082019050919050565b60006111206025836112a3565b915061112b82611527565b604082019050919050565b61113f816113b1565b82525050565b600060208201905061115a6000830184611053565b92915050565b60006060820190506111756000830186611053565b6111826020830185611053565b61118f6040830184611136565b949350505050565b60006040820190506111ac6000830185611053565b6111b96020830184611136565b9392505050565b60006020820190506111d56000830184611062565b92915050565b600060208201905081810360008301526111f58184611071565b905092915050565b60006020820190508181036000830152611216816110aa565b9050919050565b60006020820190508181036000830152611236816110cd565b9050919050565b60006020820190508181036000830152611256816110f0565b9050919050565b6000602082019050818103600083015261127681611113565b9050919050565b60006020820190506112926000830184611136565b92915050565b600081519050919050565b600082825260208201905092915050565b60006112bf826113b1565b91506112ca836113b1565b9250826112da576112d9611441565b5b828204905092915050565b60006112f0826113b1565b91506112fb836113b1565b9250817fffffffffffffffffffffffffffffffffffffffffffffffffffffffffffffffff048311821515161561133457611333611412565b5b828202905092915050565b600061134a826113b1565b9150611355836113b1565b92508282101561136857611367611412565b5b828203905092915050565b600061137e82611391565b9050919050565b60008115159050919050565b600073ffffffffffffffffffffffffffffffffffffffff82169050919050565b6000819050919050565b60006113c6826113cd565b9050919050565b60006113d882611391565b9050919050565b60005b838110156113fd5780820151818401526020810190506113e2565b8381111561140c576000848401525b50505050565b7f4e487b7100000000000000000000000000000000000000000000000000000000600052601160045260246000fd5b7f4e487b7100000000000000000000000000000000000000000000000000000000600052601260045260246000fd5b600080fd5b6000601f19601f8301169050919050565b7f53535661756c743a20456d65726765746379204f6e6c79000000000000000000600082015250565b7f4f776e61626c653a206e6577206f776e657220697320746865207a65726f206160008201527f6464726573730000000000000000000000000000000000000000000000000000602082015250565b7f4f776e61626c653a2063616c6c6572206973206e6f7420746865206f776e6572600082015250565b7f45524332303a207472616e736665722066726f6d20746865207a65726f20616460008201527f6472657373000000000000000000000000000000000000000000000000000000602082015250565b61157f81611373565b811461158a57600080fd5b50565b61159681611385565b81146115a157600080fd5b50565b6115ad816113b1565b81146115b857600080fd5b5056fea264697066735822122020680eec0e921e27a1da092861373c6bae3b0fc83d442c3857597c497d48b88764736f6c63430008060033",
  "linkReferences": {},
  "deployedLinkReferences": {}
}