{
  "_format": "hh-sol-artifact-1",
  "contractName": "ERC20",
  "sourceName": "contracts/reserveStaking.sol",
  "abi": [
    {
      "anonymous": false,
      "inputs": [
        {
          "indexed": true,
          "internalType": "address",
          "name": "owner",
          "type": "address"
        },
        {
          "indexed": true,
          "internalType": "address",
          "name": "spender",
          "type": "address"
        },
        {
          "indexed": false,
          "internalType": "uint256",
          "name": "value",
          "type": "uint256"
        }
      ],
      "name": "Approval",
      "type": "event"
    },
    {
      "anonymous": false,
      "inputs": [
        {
          "indexed": true,
          "internalType": "address",
          "name": "from",
          "type": "address"
        },
        {
          "indexed": true,
          "internalType": "address",
          "name": "to",
          "type": "address"
        },
        {
          "indexed": false,
          "internalType": "uint256",
          "name": "value",
          "type": "uint256"
        }
      ],
      "name": "Transfer",
      "type": "event"
    },
    {
      "inputs": [
        {
          "internalType": "address",
          "name": "owner",
          "type": "address"
        },
        {
          "internalType": "address",
          "name": "spender",
          "type": "address"
        }
      ],
      "name": "allowance",
      "outputs": [
        {
          "internalType": "uint256",
          "name": "",
          "type": "uint256"
        }
      ],
      "stateMutability": "view",
      "type": "function"
    },
    {
      "inputs": [
        {
          "internalType": "address",
          "name": "spender",
          "type": "address"
        },
        {
          "internalType": "uint256",
          "name": "value",
          "type": "uint256"
        }
      ],
      "name": "approve",
      "outputs": [
        {
          "internalType": "bool",
          "name": "",
          "type": "bool"
        }
      ],
      "stateMutability": "nonpayable",
      "type": "function"
    },
    {
      "inputs": [
        {
          "internalType": "address",
          "name": "account",
          "type": "address"
        }
      ],
      "name": "balanceOf",
      "outputs": [
        {
          "internalType": "uint256",
          "name": "",
          "type": "uint256"
        }
      ],
      "stateMutability": "view",
      "type": "function"
    },
    {
      "inputs": [
        {
          "internalType": "uint256",
          "name": "amount",
          "type": "uint256"
        }
      ],
      "name": "burn",
      "outputs": [],
      "stateMutability": "nonpayable",
      "type": "function"
    },
    {
      "inputs": [
        {
          "internalType": "address",
          "name": "spender",
          "type": "address"
        },
        {
          "internalType": "uint256",
          "name": "subtractedValue",
          "type": "uint256"
        }
      ],
      "name": "decreaseAllowance",
      "outputs": [
        {
          "internalType": "bool",
          "name": "",
          "type": "bool"
        }
      ],
      "stateMutability": "nonpayable",
      "type": "function"
    },
    {
      "inputs": [
        {
          "internalType": "address",
          "name": "spender",
          "type": "address"
        },
        {
          "internalType": "uint256",
          "name": "addedValue",
          "type": "uint256"
        }
      ],
      "name": "increaseAllowance",
      "outputs": [
        {
          "internalType": "bool",
          "name": "",
          "type": "bool"
        }
      ],
      "stateMutability": "nonpayable",
      "type": "function"
    },
    {
      "inputs": [
        {
          "internalType": "address",
          "name": "account",
          "type": "address"
        },
        {
          "internalType": "uint256",
          "name": "amount",
          "type": "uint256"
        }
      ],
      "name": "mint",
      "outputs": [
        {
          "internalType": "bool",
          "name": "",
          "type": "bool"
        }
      ],
      "stateMutability": "nonpayable",
      "type": "function"
    },
    {
      "inputs": [],
      "name": "totalSupply",
      "outputs": [
        {
          "internalType": "uint256",
          "name": "",
          "type": "uint256"
        }
      ],
      "stateMutability": "view",
      "type": "function"
    },
    {
      "inputs": [
        {
          "internalType": "address",
          "name": "recipient",
          "type": "address"
        },
        {
          "internalType": "uint256",
          "name": "amount",
          "type": "uint256"
        }
      ],
      "name": "transfer",
      "outputs": [
        {
          "internalType": "bool",
          "name": "",
          "type": "bool"
        }
      ],
      "stateMutability": "nonpayable",
      "type": "function"
    },
    {
      "inputs": [
        {
          "internalType": "address",
          "name": "sender",
          "type": "address"
        },
        {
          "internalType": "address",
          "name": "recipient",
          "type": "address"
        },
        {
          "internalType": "uint256",
          "name": "amount",
          "type": "uint256"
        }
      ],
      "name": "transferFrom",
      "outputs": [
        {
          "internalType": "bool",
          "name": "",
          "type": "bool"
        }
      ],
      "stateMutability": "nonpayable",
      "type": "function"
    }
  ],
  "bytecode": "0x608060405234801561001057600080fd5b50611570806100206000396000f3fe608060405234801561001057600080fd5b506004361061009e5760003560e01c806342966c681161006657806342966c681461018157806370a082311461019d578063a457c2d7146101cd578063a9059cbb146101fd578063dd62ed3e1461022d5761009e565b8063095ea7b3146100a357806318160ddd146100d357806323b872dd146100f1578063395093511461012157806340c10f1914610151575b600080fd5b6100bd60048036038101906100b89190610ed8565b61025d565b6040516100ca9190611091565b60405180910390f35b6100db610274565b6040516100e891906111ae565b60405180910390f35b61010b60048036038101906101069190610e85565b61027e565b6040516101189190611091565b60405180910390f35b61013b60048036038101906101369190610ed8565b61032f565b6040516101489190611091565b60405180910390f35b61016b60048036038101906101669190610ed8565b6103d4565b6040516101789190611091565b60405180910390f35b61019b60048036038101906101969190610f18565b6103ea565b005b6101b760048036038101906101b29190610e18565b61040c565b6040516101c491906111ae565b60405180910390f35b6101e760048036038101906101e29190610ed8565b610454565b6040516101f49190611091565b60405180910390f35b61021760048036038101906102129190610ed8565b6104f9565b6040516102249190611091565b60405180910390f35b61024760048036038101906102429190610e45565b610510565b60405161025491906111ae565b60405180910390f35b600061026a338484610597565b6001905092915050565b6000600254905090565b600061028b848484610762565b610324843361031f85600160008a73ffffffffffffffffffffffffffffffffffffffff1673ffffffffffffffffffffffffffffffffffffffff16815260200190815260200160002060003373ffffffffffffffffffffffffffffffffffffffff1673ffffffffffffffffffffffffffffffffffffffff168152602001908152602001600020546109d290919063ffffffff16565b610597565b600190509392505050565b60006103ca33846103c585600160003373ffffffffffffffffffffffffffffffffffffffff1673ffffffffffffffffffffffffffffffffffffffff16815260200190815260200160002060008973ffffffffffffffffffffffffffffffffffffffff1673ffffffffffffffffffffffffffffffffffffffff16815260200190815260200160002054610a1c90919063ffffffff16565b610597565b6001905092915050565b60006103e08383610a7a565b6001905092915050565b806103f43361040c565b10156103ff57600080fd5b6104093382610c02565b50565b60008060008373ffffffffffffffffffffffffffffffffffffffff1673ffffffffffffffffffffffffffffffffffffffff168152602001908152602001600020549050919050565b60006104ef33846104ea85600160003373ffffffffffffffffffffffffffffffffffffffff1673ffffffffffffffffffffffffffffffffffffffff16815260200190815260200160002060008973ffffffffffffffffffffffffffffffffffffffff1673ffffffffffffffffffffffffffffffffffffffff168152602001908152602001600020546109d290919063ffffffff16565b610597565b6001905092915050565b6000610506338484610762565b6001905092915050565b6000600160008473ffffffffffffffffffffffffffffffffffffffff1673ffffffffffffffffffffffffffffffffffffffff16815260200190815260200160002060008373ffffffffffffffffffffffffffffffffffffffff1673ffffffffffffffffffffffffffffffffffffffff16815260200190815260200160002054905092915050565b600073ffffffffffffffffffffffffffffffffffffffff168373ffffffffffffffffffffffffffffffffffffffff161415610607576040517f08c379a00000000000000000000000000000000000000000000000000000000081526004016105fe9061116e565b60405180910390fd5b600073ffffffffffffffffffffffffffffffffffffffff168273ffffffffffffffffffffffffffffffffffffffff161415610677576040517f08c379a000000000000000000000000000000000000000000000000000000000815260040161066e906110ee565b60405180910390fd5b80600160008573ffffffffffffffffffffffffffffffffffffffff1673ffffffffffffffffffffffffffffffffffffffff16815260200190815260200160002060008473ffffffffffffffffffffffffffffffffffffffff1673ffffffffffffffffffffffffffffffffffffffff168152602001908152602001600020819055508173ffffffffffffffffffffffffffffffffffffffff168373ffffffffffffffffffffffffffffffffffffffff167f8c5be1e5ebec7d5bd14f71427d1e84f3dd0314c0f7b2291e5b200ac8c7c3b9258360405161075591906111ae565b60405180910390a3505050565b600073ffffffffffffffffffffffffffffffffffffffff168373ffffffffffffffffffffffffffffffffffffffff1614156107d2576040517f08c379a00000000000000000000000000000000000000000000000000000000081526004016107c99061114e565b60405180910390fd5b600073ffffffffffffffffffffffffffffffffffffffff168273ffffffffffffffffffffffffffffffffffffffff161415610842576040517f08c379a0000000000000000000000000000000000000000000000000000000008152600401610839906110ce565b60405180910390fd5b610893816000808673ffffffffffffffffffffffffffffffffffffffff1673ffffffffffffffffffffffffffffffffffffffff168152602001908152602001600020546109d290919063ffffffff16565b6000808573ffffffffffffffffffffffffffffffffffffffff1673ffffffffffffffffffffffffffffffffffffffff16815260200190815260200160002081905550610926816000808573ffffffffffffffffffffffffffffffffffffffff1673ffffffffffffffffffffffffffffffffffffffff16815260200190815260200160002054610a1c90919063ffffffff16565b6000808473ffffffffffffffffffffffffffffffffffffffff1673ffffffffffffffffffffffffffffffffffffffff168152602001908152602001600020819055508173ffffffffffffffffffffffffffffffffffffffff168373ffffffffffffffffffffffffffffffffffffffff167fddf252ad1be2c89b69c2b068fc378daa952ba7f163c4a11628f55a4df523b3ef836040516109c591906111ae565b60405180910390a3505050565b6000610a1483836040518060400160405280601e81526020017f536166654d6174683a207375627472616374696f6e206f766572666c6f770000815250610d8a565b905092915050565b6000808284610a2b91906111e5565b905083811015610a70576040517f08c379a0000000000000000000000000000000000000000000000000000000008152600401610a679061110e565b60405180910390fd5b8091505092915050565b600073ffffffffffffffffffffffffffffffffffffffff168273ffffffffffffffffffffffffffffffffffffffff161415610aea576040517f08c379a0000000000000000000000000000000000000000000000000000000008152600401610ae19061118e565b60405180910390fd5b610aff81600254610a1c90919063ffffffff16565b600281905550610b56816000808573ffffffffffffffffffffffffffffffffffffffff1673ffffffffffffffffffffffffffffffffffffffff16815260200190815260200160002054610a1c90919063ffffffff16565b6000808473ffffffffffffffffffffffffffffffffffffffff1673ffffffffffffffffffffffffffffffffffffffff168152602001908152602001600020819055508173ffffffffffffffffffffffffffffffffffffffff16600073ffffffffffffffffffffffffffffffffffffffff167fddf252ad1be2c89b69c2b068fc378daa952ba7f163c4a11628f55a4df523b3ef83604051610bf691906111ae565b60405180910390a35050565b600073ffffffffffffffffffffffffffffffffffffffff168273ffffffffffffffffffffffffffffffffffffffff161415610c72576040517f08c379a0000000000000000000000000000000000000000000000000000000008152600401610c699061112e565b60405180910390fd5b610c87816002546109d290919063ffffffff16565b600281905550610cde816000808573ffffffffffffffffffffffffffffffffffffffff1673ffffffffffffffffffffffffffffffffffffffff168152602001908152602001600020546109d290919063ffffffff16565b6000808473ffffffffffffffffffffffffffffffffffffffff1673ffffffffffffffffffffffffffffffffffffffff16815260200190815260200160002081905550600073ffffffffffffffffffffffffffffffffffffffff168273ffffffffffffffffffffffffffffffffffffffff167fddf252ad1be2c89b69c2b068fc378daa952ba7f163c4a11628f55a4df523b3ef83604051610d7e91906111ae565b60405180910390a35050565b6000838311158290610dd2576040517f08c379a0000000000000000000000000000000000000000000000000000000008152600401610dc991906110ac565b60405180910390fd5b5060008385610de1919061123b565b9050809150509392505050565b600081359050610dfd8161150c565b92915050565b600081359050610e1281611523565b92915050565b600060208284031215610e2e57610e2d611319565b5b6000610e3c84828501610dee565b91505092915050565b60008060408385031215610e5c57610e5b611319565b5b6000610e6a85828601610dee565b9250506020610e7b85828601610dee565b9150509250929050565b600080600060608486031215610e9e57610e9d611319565b5b6000610eac86828701610dee565b9350506020610ebd86828701610dee565b9250506040610ece86828701610e03565b9150509250925092565b60008060408385031215610eef57610eee611319565b5b6000610efd85828601610dee565b9250506020610f0e85828601610e03565b9150509250929050565b600060208284031215610f2e57610f2d611319565b5b6000610f3c84828501610e03565b91505092915050565b610f4e81611281565b82525050565b6000610f5f826111c9565b610f6981856111d4565b9350610f798185602086016112b7565b610f828161131e565b840191505092915050565b6000610f9a6023836111d4565b9150610fa58261132f565b604082019050919050565b6000610fbd6022836111d4565b9150610fc88261137e565b604082019050919050565b6000610fe0601b836111d4565b9150610feb826113cd565b602082019050919050565b60006110036021836111d4565b915061100e826113f6565b604082019050919050565b60006110266025836111d4565b915061103182611445565b604082019050919050565b60006110496024836111d4565b915061105482611494565b604082019050919050565b600061106c601f836111d4565b9150611077826114e3565b602082019050919050565b61108b816112ad565b82525050565b60006020820190506110a66000830184610f45565b92915050565b600060208201905081810360008301526110c68184610f54565b905092915050565b600060208201905081810360008301526110e781610f8d565b9050919050565b6000602082019050818103600083015261110781610fb0565b9050919050565b6000602082019050818103600083015261112781610fd3565b9050919050565b6000602082019050818103600083015261114781610ff6565b9050919050565b6000602082019050818103600083015261116781611019565b9050919050565b600060208201905081810360008301526111878161103c565b9050919050565b600060208201905081810360008301526111a78161105f565b9050919050565b60006020820190506111c36000830184611082565b92915050565b600081519050919050565b600082825260208201905092915050565b60006111f0826112ad565b91506111fb836112ad565b9250827fffffffffffffffffffffffffffffffffffffffffffffffffffffffffffffffff038211156112305761122f6112ea565b5b828201905092915050565b6000611246826112ad565b9150611251836112ad565b925082821015611264576112636112ea565b5b828203905092915050565b600061127a8261128d565b9050919050565b60008115159050919050565b600073ffffffffffffffffffffffffffffffffffffffff82169050919050565b6000819050919050565b60005b838110156112d55780820151818401526020810190506112ba565b838111156112e4576000848401525b50505050565b7f4e487b7100000000000000000000000000000000000000000000000000000000600052601160045260246000fd5b600080fd5b6000601f19601f8301169050919050565b7f45524332303a207472616e7366657220746f20746865207a65726f206164647260008201527f6573730000000000000000000000000000000000000000000000000000000000602082015250565b7f45524332303a20617070726f766520746f20746865207a65726f20616464726560008201527f7373000000000000000000000000000000000000000000000000000000000000602082015250565b7f536166654d6174683a206164646974696f6e206f766572666c6f770000000000600082015250565b7f45524332303a206275726e2066726f6d20746865207a65726f2061646472657360008201527f7300000000000000000000000000000000000000000000000000000000000000602082015250565b7f45524332303a207472616e736665722066726f6d20746865207a65726f20616460008201527f6472657373000000000000000000000000000000000000000000000000000000602082015250565b7f45524332303a20617070726f76652066726f6d20746865207a65726f2061646460008201527f7265737300000000000000000000000000000000000000000000000000000000602082015250565b7f45524332303a206d696e7420746f20746865207a65726f206164647265737300600082015250565b6115158161126f565b811461152057600080fd5b50565b61152c816112ad565b811461153757600080fd5b5056fea264697066735822122043455759f852f8eebe2bfd8a99f453284a342344998c7e14f94e2d9266a651de64736f6c63430008060033",
  "linkReferences": {},
  "deployedLinkReferences": {}
}