{
  "_format": "hh-sol-artifact-1",
  "contractName": "ReserveStaking",
  "sourceName": "contracts/reserveStaking.sol",
  "abi": [
    {
      "inputs": [],
      "stateMutability": "nonpayable",
      "type": "constructor"
    },
    {
      "anonymous": false,
      "inputs": [
        {
          "indexed": true,
          "internalType": "address",
          "name": "user",
          "type": "address"
        },
        {
          "indexed": true,
          "internalType": "uint256",
          "name": "pid",
          "type": "uint256"
        },
        {
          "indexed": false,
          "internalType": "uint256",
          "name": "amount",
          "type": "uint256"
        }
      ],
      "name": "Deposit",
      "type": "event"
    },
    {
      "anonymous": false,
      "inputs": [
        {
          "indexed": true,
          "internalType": "address",
          "name": "user",
          "type": "address"
        },
        {
          "indexed": true,
          "internalType": "uint256",
          "name": "pid",
          "type": "uint256"
        },
        {
          "indexed": false,
          "internalType": "uint256",
          "name": "amount",
          "type": "uint256"
        }
      ],
      "name": "EmergencyWithdraw",
      "type": "event"
    },
    {
      "anonymous": false,
      "inputs": [
        {
          "indexed": true,
          "internalType": "address",
          "name": "previousOwner",
          "type": "address"
        },
        {
          "indexed": true,
          "internalType": "address",
          "name": "newOwner",
          "type": "address"
        }
      ],
      "name": "OwnershipTransferred",
      "type": "event"
    },
    {
      "anonymous": false,
      "inputs": [
        {
          "indexed": true,
          "internalType": "address",
          "name": "user",
          "type": "address"
        },
        {
          "indexed": true,
          "internalType": "uint256",
          "name": "pid",
          "type": "uint256"
        },
        {
          "indexed": false,
          "internalType": "uint256",
          "name": "amount",
          "type": "uint256"
        }
      ],
      "name": "Withdraw",
      "type": "event"
    },
    {
      "inputs": [],
      "name": "BONUS_MULTIPLIER",
      "outputs": [
        {
          "internalType": "uint256",
          "name": "",
          "type": "uint256"
        }
      ],
      "stateMutability": "view",
      "type": "function"
    },
    {
      "inputs": [],
      "name": "Receiver",
      "outputs": [
        {
          "internalType": "address",
          "name": "",
          "type": "address"
        }
      ],
      "stateMutability": "view",
      "type": "function"
    },
    {
      "inputs": [],
      "name": "bonusEndBlock",
      "outputs": [
        {
          "internalType": "uint256",
          "name": "",
          "type": "uint256"
        }
      ],
      "stateMutability": "view",
      "type": "function"
    },
    {
      "inputs": [
        {
          "internalType": "uint256",
          "name": "_pid",
          "type": "uint256"
        },
        {
          "internalType": "uint256",
          "name": "_amount",
          "type": "uint256"
        }
      ],
      "name": "deposit",
      "outputs": [],
      "stateMutability": "nonpayable",
      "type": "function"
    },
    {
      "inputs": [
        {
          "internalType": "address",
          "name": "_devaddr",
          "type": "address"
        }
      ],
      "name": "dev",
      "outputs": [],
      "stateMutability": "nonpayable",
      "type": "function"
    },
    {
      "inputs": [],
      "name": "devaddr",
      "outputs": [
        {
          "internalType": "address",
          "name": "",
          "type": "address"
        }
      ],
      "stateMutability": "view",
      "type": "function"
    },
    {
      "inputs": [
        {
          "internalType": "uint256",
          "name": "_pid",
          "type": "uint256"
        }
      ],
      "name": "emergencyWithdraw",
      "outputs": [],
      "stateMutability": "nonpayable",
      "type": "function"
    },
    {
      "inputs": [
        {
          "internalType": "uint256",
          "name": "_from",
          "type": "uint256"
        },
        {
          "internalType": "uint256",
          "name": "_to",
          "type": "uint256"
        }
      ],
      "name": "getMultiplier",
      "outputs": [
        {
          "internalType": "uint256",
          "name": "",
          "type": "uint256"
        }
      ],
      "stateMutability": "view",
      "type": "function"
    },
    {
      "inputs": [],
      "name": "massUpdatePools",
      "outputs": [],
      "stateMutability": "nonpayable",
      "type": "function"
    },
    {
      "inputs": [
        {
          "internalType": "uint256",
          "name": "_pid",
          "type": "uint256"
        }
      ],
      "name": "migrate",
      "outputs": [],
      "stateMutability": "nonpayable",
      "type": "function"
    },
    {
      "inputs": [],
      "name": "migrator",
      "outputs": [
        {
          "internalType": "contract IMigratorChef",
          "name": "",
          "type": "address"
        }
      ],
      "stateMutability": "view",
      "type": "function"
    },
    {
      "inputs": [],
      "name": "owner",
      "outputs": [
        {
          "internalType": "address",
          "name": "",
          "type": "address"
        }
      ],
      "stateMutability": "view",
      "type": "function"
    },
    {
      "inputs": [
        {
          "internalType": "uint256",
          "name": "_pid",
          "type": "uint256"
        },
        {
          "internalType": "address",
          "name": "_user",
          "type": "address"
        }
      ],
      "name": "pendingSushi",
      "outputs": [
        {
          "internalType": "uint256",
          "name": "",
          "type": "uint256"
        }
      ],
      "stateMutability": "view",
      "type": "function"
    },
    {
      "inputs": [
        {
          "internalType": "uint256",
          "name": "",
          "type": "uint256"
        }
      ],
      "name": "poolInfo",
      "outputs": [
        {
          "internalType": "contract IERC20",
          "name": "lpToken",
          "type": "address"
        },
        {
          "internalType": "uint256",
          "name": "allocPoint",
          "type": "uint256"
        },
        {
          "internalType": "uint256",
          "name": "lastRewardBlock",
          "type": "uint256"
        },
        {
          "internalType": "uint256",
          "name": "accSushiPerShare",
          "type": "uint256"
        }
      ],
      "stateMutability": "view",
      "type": "function"
    },
    {
      "inputs": [],
      "name": "poolLength",
      "outputs": [
        {
          "internalType": "uint256",
          "name": "",
          "type": "uint256"
        }
      ],
      "stateMutability": "view",
      "type": "function"
    },
    {
      "inputs": [],
      "name": "renounceOwnership",
      "outputs": [],
      "stateMutability": "nonpayable",
      "type": "function"
    },
    {
      "inputs": [],
      "name": "reserveAddress",
      "outputs": [
        {
          "internalType": "address",
          "name": "",
          "type": "address"
        }
      ],
      "stateMutability": "view",
      "type": "function"
    },
    {
      "inputs": [
        {
          "internalType": "uint256",
          "name": "_pid",
          "type": "uint256"
        },
        {
          "internalType": "uint256",
          "name": "_allocPoint",
          "type": "uint256"
        },
        {
          "internalType": "bool",
          "name": "_withUpdate",
          "type": "bool"
        }
      ],
      "name": "set",
      "outputs": [],
      "stateMutability": "nonpayable",
      "type": "function"
    },
    {
      "inputs": [
        {
          "internalType": "contract IMigratorChef",
          "name": "_migrator",
          "type": "address"
        }
      ],
      "name": "setMigrator",
      "outputs": [],
      "stateMutability": "nonpayable",
      "type": "function"
    },
    {
      "inputs": [
        {
          "internalType": "uint256",
          "name": "_sushiperblock",
          "type": "uint256"
        }
      ],
      "name": "setSushiPerBlock",
      "outputs": [],
      "stateMutability": "nonpayable",
      "type": "function"
    },
    {
      "inputs": [],
      "name": "startBlock",
      "outputs": [
        {
          "internalType": "uint256",
          "name": "",
          "type": "uint256"
        }
      ],
      "stateMutability": "view",
      "type": "function"
    },
    {
      "inputs": [],
      "name": "sushi",
      "outputs": [
        {
          "internalType": "contract SushiToken",
          "name": "",
          "type": "address"
        }
      ],
      "stateMutability": "view",
      "type": "function"
    },
    {
      "inputs": [],
      "name": "sushiPerBlock",
      "outputs": [
        {
          "internalType": "uint256",
          "name": "",
          "type": "uint256"
        }
      ],
      "stateMutability": "view",
      "type": "function"
    },
    {
      "inputs": [
        {
          "internalType": "address",
          "name": "",
          "type": "address"
        }
      ],
      "name": "tokenAdded",
      "outputs": [
        {
          "internalType": "bool",
          "name": "",
          "type": "bool"
        }
      ],
      "stateMutability": "view",
      "type": "function"
    },
    {
      "inputs": [],
      "name": "totalAllocPoint",
      "outputs": [
        {
          "internalType": "uint256",
          "name": "",
          "type": "uint256"
        }
      ],
      "stateMutability": "view",
      "type": "function"
    },
    {
      "inputs": [
        {
          "internalType": "address",
          "name": "newOwner",
          "type": "address"
        }
      ],
      "name": "transferOwnership",
      "outputs": [],
      "stateMutability": "nonpayable",
      "type": "function"
    },
    {
      "inputs": [
        {
          "internalType": "uint256",
          "name": "_pid",
          "type": "uint256"
        }
      ],
      "name": "updatePool",
      "outputs": [],
      "stateMutability": "nonpayable",
      "type": "function"
    },
    {
      "inputs": [
        {
          "internalType": "uint256",
          "name": "",
          "type": "uint256"
        },
        {
          "internalType": "address",
          "name": "",
          "type": "address"
        }
      ],
      "name": "userInfo",
      "outputs": [
        {
          "internalType": "uint256",
          "name": "amount",
          "type": "uint256"
        },
        {
          "internalType": "uint256",
          "name": "rewardDebt",
          "type": "uint256"
        }
      ],
      "stateMutability": "view",
      "type": "function"
    },
    {
      "inputs": [
        {
          "internalType": "uint256",
          "name": "_pid",
          "type": "uint256"
        },
        {
          "internalType": "uint256",
          "name": "_amount",
          "type": "uint256"
        }
      ],
      "name": "withdraw",
      "outputs": [],
      "stateMutability": "nonpayable",
      "type": "function"
    }
  ],
  "bytecode": "0x608060405260006009553480156200001657600080fd5b506000620000296200026e60201b60201c565b9050806000806101000a81548173ffffffffffffffffffffffffffffffffffffffff021916908373ffffffffffffffffffffffffffffffffffffffff1602179055508073ffffffffffffffffffffffffffffffffffffffff16600073ffffffffffffffffffffffffffffffffffffffff167f8be0079c531659141344cd1fd0a4f28419497f9722a3daafe3b4186f6b6457e060405160405180910390a35073a8339616c616d85352336b27db2785a8160ef34f600b60006101000a81548173ffffffffffffffffffffffffffffffffffffffff021916908373ffffffffffffffffffffffffffffffffffffffff160217905550600b60009054906101000a900473ffffffffffffffffffffffffffffffffffffffff16600260006101000a81548173ffffffffffffffffffffffffffffffffffffffff021916908373ffffffffffffffffffffffffffffffffffffffff1602179055507331040760372657c69c3296104a9f01de727f05d6600160006101000a81548173ffffffffffffffffffffffffffffffffffffffff021916908373ffffffffffffffffffffffffffffffffffffffff16021790555033600360006101000a81548173ffffffffffffffffffffffffffffffffffffffff021916908373ffffffffffffffffffffffffffffffffffffffff160217905550660e35fa931a00006005819055504360048190555043600a81905550620002686064600b60009054906101000a900473ffffffffffffffffffffffffffffffffffffffff1660016200027660201b60201c565b620010b2565b600033905090565b80156200028e576200028d6200048760201b60201c565b5b60001515600c60008473ffffffffffffffffffffffffffffffffffffffff1673ffffffffffffffffffffffffffffffffffffffff16815260200190815260200160002060009054906101000a900460ff1615151462000324576040517f08c379a00000000000000000000000000000000000000000000000000000000081526004016200031b9062000cfd565b60405180910390fd5b6001600c60008473ffffffffffffffffffffffffffffffffffffffff1673ffffffffffffffffffffffffffffffffffffffff16815260200190815260200160002060006101000a81548160ff0219169083151502179055506000600a5443116200039157600a5462000393565b435b9050620003b184600954620004c660201b62001b811790919060201c565b600981905550600760405180608001604052808573ffffffffffffffffffffffffffffffffffffffff1681526020018681526020018381526020016000815250908060018154018082558091505060019003906000526020600020906004020160009091909190915060008201518160000160006101000a81548173ffffffffffffffffffffffffffffffffffffffff021916908373ffffffffffffffffffffffffffffffffffffffff160217905550602082015181600101556040820151816002015560608201518160030155505050505050565b6000600780549050905060005b81811015620004c257620004ae816200052960201b60201c565b80620004ba9062000eec565b905062000494565b5050565b6000808284620004d7919062000d3b565b9050838110156200051f576040517f08c379a0000000000000000000000000000000000000000000000000000000008152600401620005169062000cb9565b60405180910390fd5b8091505092915050565b60006007828154811062000542576200054162000f98565b5b9060005260206000209060040201905080600201544311620005655750620007ee565b60008160000160009054906101000a900473ffffffffffffffffffffffffffffffffffffffff1673ffffffffffffffffffffffffffffffffffffffff166370a08231306040518263ffffffff1660e01b8152600401620005c6919062000c3b565b60206040518083038186803b158015620005df57600080fd5b505afa158015620005f4573d6000803e3d6000fd5b505050506040513d601f19601f820116820180604052508101906200061a919062000b31565b9050600081141562000637574382600201819055505050620007ee565b60006200064f836002015443620007f160201b60201c565b90506000620006a76009546200069386600101546200067f60055487620008d860201b62001bdf1790919060201c565b620008d860201b62001bdf1790919060201c565b6200095c60201b62001c5a1790919060201c565b9050600260009054906101000a900473ffffffffffffffffffffffffffffffffffffffff1673ffffffffffffffffffffffffffffffffffffffff166323b872dd600160009054906101000a900473ffffffffffffffffffffffffffffffffffffffff1630846040518463ffffffff1660e01b81526004016200072c9392919062000c58565b602060405180830381600087803b1580156200074757600080fd5b505af11580156200075c573d6000803e3d6000fd5b505050506040513d601f19601f8201168201806040525081019062000782919062000aff565b50620007d8620007bf84620007ab64e8d4a5100085620008d860201b62001bdf1790919060201c565b6200095c60201b62001c5a1790919060201c565b8560030154620004c660201b62001b811790919060201c565b8460030181905550438460020181905550505050505b50565b60006004548211620008395762000831600a6200081d8585620009ae60201b62001ca41790919060201c565b620008d860201b62001bdf1790919060201c565b9050620008d2565b600454831062000865576200085d8383620009ae60201b62001ca41790919060201c565b9050620008d2565b620008cf6200088560045484620009ae60201b62001ca41790919060201c565b620008bb600a620008a787600454620009ae60201b62001ca41790919060201c565b620008d860201b62001bdf1790919060201c565b620004c660201b62001b811790919060201c565b90505b92915050565b600080831415620008ed576000905062000956565b60008284620008fd919062000dd0565b90508284826200090e919062000d98565b1462000951576040517f08c379a0000000000000000000000000000000000000000000000000000000008152600401620009489062000cdb565b60405180910390fd5b809150505b92915050565b6000620009a683836040518060400160405280601a81526020017f536166654d6174683a206469766973696f6e206279207a65726f00000000000081525062000a0060201b60201c565b905092915050565b6000620009f883836040518060400160405280601e81526020017f536166654d6174683a207375627472616374696f6e206f766572666c6f77000081525062000a6860201b60201c565b905092915050565b6000808311829062000a4a576040517f08c379a000000000000000000000000000000000000000000000000000000000815260040162000a41919062000c95565b60405180910390fd5b506000838562000a5b919062000d98565b9050809150509392505050565b600083831115829062000ab3576040517f08c379a000000000000000000000000000000000000000000000000000000000815260040162000aaa919062000c95565b60405180910390fd5b506000838562000ac4919062000e31565b9050809150509392505050565b60008151905062000ae2816200107e565b92915050565b60008151905062000af98162001098565b92915050565b60006020828403121562000b185762000b1762000fc7565b5b600062000b288482850162000ad1565b91505092915050565b60006020828403121562000b4a5762000b4962000fc7565b5b600062000b5a8482850162000ae8565b91505092915050565b62000b6e8162000e6c565b82525050565b600062000b818262000d1f565b62000b8d818562000d2a565b935062000b9f81856020860162000eb6565b62000baa8162000fcc565b840191505092915050565b600062000bc4601b8362000d2a565b915062000bd18262000fdd565b602082019050919050565b600062000beb60218362000d2a565b915062000bf88262001006565b604082019050919050565b600062000c1260138362000d2a565b915062000c1f8262001055565b602082019050919050565b62000c358162000eac565b82525050565b600060208201905062000c52600083018462000b63565b92915050565b600060608201905062000c6f600083018662000b63565b62000c7e602083018562000b63565b62000c8d604083018462000c2a565b949350505050565b6000602082019050818103600083015262000cb1818462000b74565b905092915050565b6000602082019050818103600083015262000cd48162000bb5565b9050919050565b6000602082019050818103600083015262000cf68162000bdc565b9050919050565b6000602082019050818103600083015262000d188162000c03565b9050919050565b600081519050919050565b600082825260208201905092915050565b600062000d488262000eac565b915062000d558362000eac565b9250827fffffffffffffffffffffffffffffffffffffffffffffffffffffffffffffffff0382111562000d8d5762000d8c62000f3a565b5b828201905092915050565b600062000da58262000eac565b915062000db28362000eac565b92508262000dc55762000dc462000f69565b5b828204905092915050565b600062000ddd8262000eac565b915062000dea8362000eac565b9250817fffffffffffffffffffffffffffffffffffffffffffffffffffffffffffffffff048311821515161562000e265762000e2562000f3a565b5b828202905092915050565b600062000e3e8262000eac565b915062000e4b8362000eac565b92508282101562000e615762000e6062000f3a565b5b828203905092915050565b600062000e798262000e8c565b9050919050565b60008115159050919050565b600073ffffffffffffffffffffffffffffffffffffffff82169050919050565b6000819050919050565b60005b8381101562000ed657808201518184015260208101905062000eb9565b8381111562000ee6576000848401525b50505050565b600062000ef98262000eac565b91507fffffffffffffffffffffffffffffffffffffffffffffffffffffffffffffffff82141562000f2f5762000f2e62000f3a565b5b600182019050919050565b7f4e487b7100000000000000000000000000000000000000000000000000000000600052601160045260246000fd5b7f4e487b7100000000000000000000000000000000000000000000000000000000600052601260045260246000fd5b7f4e487b7100000000000000000000000000000000000000000000000000000000600052603260045260246000fd5b600080fd5b6000601f19601f8301169050919050565b7f536166654d6174683a206164646974696f6e206f766572666c6f770000000000600082015250565b7f536166654d6174683a206d756c7469706c69636174696f6e206f766572666c6f60008201527f7700000000000000000000000000000000000000000000000000000000000000602082015250565b7f546f6b656e20416c726561647920416464656400000000000000000000000000600082015250565b620010898162000e80565b81146200109557600080fd5b50565b620010a38162000eac565b8114620010af57600080fd5b50565b61337a80620010c26000396000f3fe608060405234801561001057600080fd5b50600436106101cf5760003560e01c806364482f79116101045780638da5cb5b116100a2578063d49e77cd11610071578063d49e77cd146104e8578063e2bbb15814610506578063f2fde38b14610522578063f79ed94b1461053e576101cf565b80638da5cb5b1461044b5780638dbb1e3a1461046957806393f1a40b14610499578063b0bcf42a146104ca576101cf565b80637312c065116100de5780637312c065146103d55780637cd07e47146103f35780638aa28550146104115780638d88a90e1461042f576101cf565b806364482f791461037f5780636dfeb12f1461039b578063715018a6146103cb576101cf565b80633353c5fd1161017157806348cd4cb11161014b57806348cd4cb11461031f57806351eb05a61461033d5780635312ea8e14610359578063630b5ba114610375576101cf565b80633353c5fd146102cb578063441a3e70146102e7578063454b060814610303576101cf565b806317caf6f1116101ad57806317caf6f114610243578063195426ec146102615780631aed65531461029157806323cf3118146102af576101cf565b8063081e3eda146101d45780630a087903146101f25780631526fe2714610210575b600080fd5b6101dc61055c565b6040516101e99190612ca5565b60405180910390f35b6101fa610569565b6040516102079190612ae8565b60405180910390f35b61022a60048036038101906102259190612602565b61058f565b60405161023a9493929190612a88565b60405180910390f35b61024b6105ef565b6040516102589190612ca5565b60405180910390f35b61027b6004803603810190610276919061265c565b6105f5565b6040516102889190612ca5565b60405180910390f35b610299610829565b6040516102a69190612ca5565b60405180910390f35b6102c960048036038101906102c491906125d5565b61082f565b005b6102e560048036038101906102e09190612602565b6108ef565b005b61030160048036038101906102fc919061269c565b610975565b005b61031d60048036038101906103189190612602565b610b93565b005b610327610f13565b6040516103349190612ca5565b60405180910390f35b61035760048036038101906103529190612602565b610f19565b005b610373600480360381019061036e9190612602565b61119c565b005b61037d6112d5565b005b610399600480360381019061039491906126dc565b611308565b005b6103b560048036038101906103b0919061254e565b611414565b6040516103c29190612a52565b60405180910390f35b6103d3611434565b005b6103dd61156e565b6040516103ea91906129ae565b60405180910390f35b6103fb611594565b6040516104089190612acd565b60405180910390f35b6104196115ba565b6040516104269190612ca5565b60405180910390f35b6104496004803603810190610444919061254e565b6115bf565b005b610453611693565b60405161046091906129ae565b60405180910390f35b610483600480360381019061047e919061269c565b6116bc565b6040516104909190612ca5565b60405180910390f35b6104b360048036038101906104ae919061265c565b61176e565b6040516104c1929190612cc0565b60405180910390f35b6104d261179f565b6040516104df9190612ca5565b60405180910390f35b6104f06117a5565b6040516104fd91906129ae565b60405180910390f35b610520600480360381019061051b919061269c565b6117cb565b005b61053c6004803603810190610537919061254e565b6119b2565b005b610546611b5b565b60405161055391906129ae565b60405180910390f35b6000600780549050905090565b600260009054906101000a900473ffffffffffffffffffffffffffffffffffffffff1681565b6007818154811061059f57600080fd5b90600052602060002090600402016000915090508060000160009054906101000a900473ffffffffffffffffffffffffffffffffffffffff16908060010154908060020154908060030154905084565b60095481565b6000806007848154811061060c5761060b612fe2565b5b9060005260206000209060040201905060006008600086815260200190815260200160002060008573ffffffffffffffffffffffffffffffffffffffff1673ffffffffffffffffffffffffffffffffffffffff168152602001908152602001600020905060008260030154905060008360000160009054906101000a900473ffffffffffffffffffffffffffffffffffffffff1673ffffffffffffffffffffffffffffffffffffffff166370a08231306040518263ffffffff1660e01b81526004016106d891906129ae565b60206040518083038186803b1580156106f057600080fd5b505afa158015610704573d6000803e3d6000fd5b505050506040513d601f19601f82011682018060405250810190610728919061262f565b905083600201544311801561073e575060008114155b156107d95760006107538560020154436116bc565b90506000610796600954610788886001015461077a60055487611bdf90919063ffffffff16565b611bdf90919063ffffffff16565b611c5a90919063ffffffff16565b90506107d46107c5846107b764e8d4a5100085611bdf90919063ffffffff16565b611c5a90919063ffffffff16565b85611b8190919063ffffffff16565b935050505b61081d836001015461080f64e8d4a51000610801868860000154611bdf90919063ffffffff16565b611c5a90919063ffffffff16565b611ca490919063ffffffff16565b94505050505092915050565b60045481565b610837611cee565b73ffffffffffffffffffffffffffffffffffffffff16610855611693565b73ffffffffffffffffffffffffffffffffffffffff16146108ab576040517f08c379a00000000000000000000000000000000000000000000000000000000081526004016108a290612bc5565b60405180910390fd5b80600660006101000a81548173ffffffffffffffffffffffffffffffffffffffff021916908373ffffffffffffffffffffffffffffffffffffffff16021790555050565b6108f7611cee565b73ffffffffffffffffffffffffffffffffffffffff16610915611693565b73ffffffffffffffffffffffffffffffffffffffff161461096b576040517f08c379a000000000000000000000000000000000000000000000000000000000815260040161096290612bc5565b60405180910390fd5b8060058190555050565b60006007838154811061098b5761098a612fe2565b5b9060005260206000209060040201905060006008600085815260200190815260200160002060003373ffffffffffffffffffffffffffffffffffffffff1673ffffffffffffffffffffffffffffffffffffffff16815260200190815260200160002090508281600001541015610a36576040517f08c379a0000000000000000000000000000000000000000000000000000000008152600401610a2d90612c05565b60405180910390fd5b610a3f84610f19565b6000610a898260010154610a7b64e8d4a51000610a6d87600301548760000154611bdf90919063ffffffff16565b611c5a90919063ffffffff16565b611ca490919063ffffffff16565b9050610a953382611cf6565b610aac848360000154611ca490919063ffffffff16565b8260000181905550610ae664e8d4a51000610ad885600301548560000154611bdf90919063ffffffff16565b611c5a90919063ffffffff16565b8260010181905550610b3d33858560000160009054906101000a900473ffffffffffffffffffffffffffffffffffffffff1673ffffffffffffffffffffffffffffffffffffffff16611f1a9092919063ffffffff16565b843373ffffffffffffffffffffffffffffffffffffffff167ff279e6a1f5e320cca91135676d9cb6e44ca8a08c0b88342bcdb1144f6511b56886604051610b849190612ca5565b60405180910390a35050505050565b600073ffffffffffffffffffffffffffffffffffffffff16600660009054906101000a900473ffffffffffffffffffffffffffffffffffffffff1673ffffffffffffffffffffffffffffffffffffffff161415610c25576040517f08c379a0000000000000000000000000000000000000000000000000000000008152600401610c1c90612c85565b60405180910390fd5b600060078281548110610c3b57610c3a612fe2565b5b9060005260206000209060040201905060008160000160009054906101000a900473ffffffffffffffffffffffffffffffffffffffff16905060008173ffffffffffffffffffffffffffffffffffffffff166370a08231306040518263ffffffff1660e01b8152600401610caf91906129ae565b60206040518083038186803b158015610cc757600080fd5b505afa158015610cdb573d6000803e3d6000fd5b505050506040513d601f19601f82011682018060405250810190610cff919061262f565b9050610d4e600660009054906101000a900473ffffffffffffffffffffffffffffffffffffffff16828473ffffffffffffffffffffffffffffffffffffffff16611fa09092919063ffffffff16565b6000600660009054906101000a900473ffffffffffffffffffffffffffffffffffffffff1673ffffffffffffffffffffffffffffffffffffffff1663ce5494bb846040518263ffffffff1660e01b8152600401610dab9190612a6d565b602060405180830381600087803b158015610dc557600080fd5b505af1158015610dd9573d6000803e3d6000fd5b505050506040513d601f19601f82011682018060405250810190610dfd91906125a8565b90508073ffffffffffffffffffffffffffffffffffffffff166370a08231306040518263ffffffff1660e01b8152600401610e3891906129ae565b60206040518083038186803b158015610e5057600080fd5b505afa158015610e64573d6000803e3d6000fd5b505050506040513d601f19601f82011682018060405250810190610e88919061262f565b8214610ec9576040517f08c379a0000000000000000000000000000000000000000000000000000000008152600401610ec090612c45565b60405180910390fd5b808460000160006101000a81548173ffffffffffffffffffffffffffffffffffffffff021916908373ffffffffffffffffffffffffffffffffffffffff1602179055505050505050565b600a5481565b600060078281548110610f2f57610f2e612fe2565b5b9060005260206000209060040201905080600201544311610f505750611199565b60008160000160009054906101000a900473ffffffffffffffffffffffffffffffffffffffff1673ffffffffffffffffffffffffffffffffffffffff166370a08231306040518263ffffffff1660e01b8152600401610faf91906129ae565b60206040518083038186803b158015610fc757600080fd5b505afa158015610fdb573d6000803e3d6000fd5b505050506040513d601f19601f82011682018060405250810190610fff919061262f565b9050600081141561101a574382600201819055505050611199565b600061102a8360020154436116bc565b9050600061106d60095461105f866001015461105160055487611bdf90919063ffffffff16565b611bdf90919063ffffffff16565b611c5a90919063ffffffff16565b9050600260009054906101000a900473ffffffffffffffffffffffffffffffffffffffff1673ffffffffffffffffffffffffffffffffffffffff166323b872dd600160009054906101000a900473ffffffffffffffffffffffffffffffffffffffff1630846040518463ffffffff1660e01b81526004016110f0939291906129f2565b602060405180830381600087803b15801561110a57600080fd5b505af115801561111e573d6000803e3d6000fd5b505050506040513d601f19601f82011682018060405250810190611142919061257b565b506111836111708461116264e8d4a5100085611bdf90919063ffffffff16565b611c5a90919063ffffffff16565b8560030154611b8190919063ffffffff16565b8460030181905550438460020181905550505050505b50565b6000600782815481106111b2576111b1612fe2565b5b9060005260206000209060040201905060006008600084815260200190815260200160002060003373ffffffffffffffffffffffffffffffffffffffff1673ffffffffffffffffffffffffffffffffffffffff16815260200190815260200160002090506112693382600001548460000160009054906101000a900473ffffffffffffffffffffffffffffffffffffffff1673ffffffffffffffffffffffffffffffffffffffff16611f1a9092919063ffffffff16565b823373ffffffffffffffffffffffffffffffffffffffff167fbb757047c2b5f3974fe26b7c10f732e7bce710b0952a71082702781e62ae059583600001546040516112b49190612ca5565b60405180910390a36000816000018190555060008160010181905550505050565b6000600780549050905060005b81811015611304576112f381610f19565b806112fd90612f3b565b90506112e2565b5050565b611310611cee565b73ffffffffffffffffffffffffffffffffffffffff1661132e611693565b73ffffffffffffffffffffffffffffffffffffffff1614611384576040517f08c379a000000000000000000000000000000000000000000000000000000000815260040161137b90612bc5565b60405180910390fd5b8015611393576113926112d5565b5b6113df826113d1600786815481106113ae576113ad612fe2565b5b906000526020600020906004020160010154600954611ca490919063ffffffff16565b611b8190919063ffffffff16565b60098190555081600784815481106113fa576113f9612fe2565b5b906000526020600020906004020160010181905550505050565b600c6020528060005260406000206000915054906101000a900460ff1681565b61143c611cee565b73ffffffffffffffffffffffffffffffffffffffff1661145a611693565b73ffffffffffffffffffffffffffffffffffffffff16146114b0576040517f08c379a00000000000000000000000000000000000000000000000000000000081526004016114a790612bc5565b60405180910390fd5b600073ffffffffffffffffffffffffffffffffffffffff1660008054906101000a900473ffffffffffffffffffffffffffffffffffffffff1673ffffffffffffffffffffffffffffffffffffffff167f8be0079c531659141344cd1fd0a4f28419497f9722a3daafe3b4186f6b6457e060405160405180910390a360008060006101000a81548173ffffffffffffffffffffffffffffffffffffffff021916908373ffffffffffffffffffffffffffffffffffffffff160217905550565b600160009054906101000a900473ffffffffffffffffffffffffffffffffffffffff1681565b600660009054906101000a900473ffffffffffffffffffffffffffffffffffffffff1681565b600a81565b600360009054906101000a900473ffffffffffffffffffffffffffffffffffffffff1673ffffffffffffffffffffffffffffffffffffffff163373ffffffffffffffffffffffffffffffffffffffff161461164f576040517f08c379a000000000000000000000000000000000000000000000000000000000815260040161164690612b85565b60405180910390fd5b80600360006101000a81548173ffffffffffffffffffffffffffffffffffffffff021916908373ffffffffffffffffffffffffffffffffffffffff16021790555050565b60008060009054906101000a900473ffffffffffffffffffffffffffffffffffffffff16905090565b600060045482116116f4576116ed600a6116df8585611ca490919063ffffffff16565b611bdf90919063ffffffff16565b9050611768565b6004548310611717576117108383611ca490919063ffffffff16565b9050611768565b61176561172f60045484611ca490919063ffffffff16565b611757600a61174987600454611ca490919063ffffffff16565b611bdf90919063ffffffff16565b611b8190919063ffffffff16565b90505b92915050565b6008602052816000526040600020602052806000526040600020600091509150508060000154908060010154905082565b60055481565b600360009054906101000a900473ffffffffffffffffffffffffffffffffffffffff1681565b6000600783815481106117e1576117e0612fe2565b5b9060005260206000209060040201905060006008600085815260200190815260200160002060003373ffffffffffffffffffffffffffffffffffffffff1673ffffffffffffffffffffffffffffffffffffffff168152602001908152602001600020905061184e84610f19565b6000816000015411156118b35760006118a5826001015461189764e8d4a5100061188987600301548760000154611bdf90919063ffffffff16565b611c5a90919063ffffffff16565b611ca490919063ffffffff16565b90506118b13382611cf6565b505b6119043330858560000160009054906101000a900473ffffffffffffffffffffffffffffffffffffffff1673ffffffffffffffffffffffffffffffffffffffff166120fe909392919063ffffffff16565b61191b838260000154611b8190919063ffffffff16565b816000018190555061195564e8d4a5100061194784600301548460000154611bdf90919063ffffffff16565b611c5a90919063ffffffff16565b8160010181905550833373ffffffffffffffffffffffffffffffffffffffff167f90890809c654f11d6e72a28fa60149770a0d11ec6c92319d6ceb2bb0a4ea1a15856040516119a49190612ca5565b60405180910390a350505050565b6119ba611cee565b73ffffffffffffffffffffffffffffffffffffffff166119d8611693565b73ffffffffffffffffffffffffffffffffffffffff1614611a2e576040517f08c379a0000000000000000000000000000000000000000000000000000000008152600401611a2590612bc5565b60405180910390fd5b600073ffffffffffffffffffffffffffffffffffffffff168173ffffffffffffffffffffffffffffffffffffffff161415611a9e576040517f08c379a0000000000000000000000000000000000000000000000000000000008152600401611a9590612b25565b60405180910390fd5b8073ffffffffffffffffffffffffffffffffffffffff1660008054906101000a900473ffffffffffffffffffffffffffffffffffffffff1673ffffffffffffffffffffffffffffffffffffffff167f8be0079c531659141344cd1fd0a4f28419497f9722a3daafe3b4186f6b6457e060405160405180910390a3806000806101000a81548173ffffffffffffffffffffffffffffffffffffffff021916908373ffffffffffffffffffffffffffffffffffffffff16021790555050565b600b60009054906101000a900473ffffffffffffffffffffffffffffffffffffffff1681565b6000808284611b909190612d1b565b905083811015611bd5576040517f08c379a0000000000000000000000000000000000000000000000000000000008152600401611bcc90612b45565b60405180910390fd5b8091505092915050565b600080831415611bf25760009050611c54565b60008284611c009190612da2565b9050828482611c0f9190612d71565b14611c4f576040517f08c379a0000000000000000000000000000000000000000000000000000000008152600401611c4690612ba5565b60405180910390fd5b809150505b92915050565b6000611c9c83836040518060400160405280601a81526020017f536166654d6174683a206469766973696f6e206279207a65726f000000000000815250612187565b905092915050565b6000611ce683836040518060400160405280601e81526020017f536166654d6174683a207375627472616374696f6e206f766572666c6f7700008152506121ea565b905092915050565b600033905090565b6000600260009054906101000a900473ffffffffffffffffffffffffffffffffffffffff1673ffffffffffffffffffffffffffffffffffffffff166370a08231306040518263ffffffff1660e01b8152600401611d5391906129ae565b602060405180830381600087803b158015611d6d57600080fd5b505af1158015611d81573d6000803e3d6000fd5b505050506040513d601f19601f82011682018060405250810190611da5919061262f565b905080821115611e6457600260009054906101000a900473ffffffffffffffffffffffffffffffffffffffff1673ffffffffffffffffffffffffffffffffffffffff1663a9059cbb84836040518363ffffffff1660e01b8152600401611e0c929190612a29565b602060405180830381600087803b158015611e2657600080fd5b505af1158015611e3a573d6000803e3d6000fd5b505050506040513d601f19601f82011682018060405250810190611e5e919061257b565b50611f15565b600260009054906101000a900473ffffffffffffffffffffffffffffffffffffffff1673ffffffffffffffffffffffffffffffffffffffff1663a9059cbb84846040518363ffffffff1660e01b8152600401611ec1929190612a29565b602060405180830381600087803b158015611edb57600080fd5b505af1158015611eef573d6000803e3d6000fd5b505050506040513d601f19601f82011682018060405250810190611f13919061257b565b505b505050565b611f9b8363a9059cbb60e01b8484604051602401611f39929190612a29565b604051602081830303815290604052907bffffffffffffffffffffffffffffffffffffffffffffffffffffffff19166020820180517bffffffffffffffffffffffffffffffffffffffffffffffffffffffff838183161783525050505061224e565b505050565b6000811480612039575060008373ffffffffffffffffffffffffffffffffffffffff1663dd62ed3e30856040518363ffffffff1660e01b8152600401611fe79291906129c9565b60206040518083038186803b158015611fff57600080fd5b505afa158015612013573d6000803e3d6000fd5b505050506040513d601f19601f82011682018060405250810190612037919061262f565b145b612078576040517f08c379a000000000000000000000000000000000000000000000000000000000815260040161206f90612c65565b60405180910390fd5b6120f98363095ea7b360e01b8484604051602401612097929190612a29565b604051602081830303815290604052907bffffffffffffffffffffffffffffffffffffffffffffffffffffffff19166020820180517bffffffffffffffffffffffffffffffffffffffffffffffffffffffff838183161783525050505061224e565b505050565b612181846323b872dd60e01b85858560405160240161211f939291906129f2565b604051602081830303815290604052907bffffffffffffffffffffffffffffffffffffffffffffffffffffffff19166020820180517bffffffffffffffffffffffffffffffffffffffffffffffffffffffff838183161783525050505061224e565b50505050565b600080831182906121ce576040517f08c379a00000000000000000000000000000000000000000000000000000000081526004016121c59190612b03565b60405180910390fd5b50600083856121dd9190612d71565b9050809150509392505050565b6000838311158290612232576040517f08c379a00000000000000000000000000000000000000000000000000000000081526004016122299190612b03565b60405180910390fd5b50600083856122419190612dfc565b9050809150509392505050565b60006122b0826040518060400160405280602081526020017f5361666545524332303a206c6f772d6c6576656c2063616c6c206661696c65648152508573ffffffffffffffffffffffffffffffffffffffff166123159092919063ffffffff16565b905060008151111561231057808060200190518101906122d0919061257b565b61230f576040517f08c379a000000000000000000000000000000000000000000000000000000000815260040161230690612c25565b60405180910390fd5b5b505050565b6060612324848460008561232d565b90509392505050565b606082471015612372576040517f08c379a000000000000000000000000000000000000000000000000000000000815260040161236990612b65565b60405180910390fd5b61237b85612441565b6123ba576040517f08c379a00000000000000000000000000000000000000000000000000000000081526004016123b190612be5565b60405180910390fd5b6000808673ffffffffffffffffffffffffffffffffffffffff1685876040516123e39190612997565b60006040518083038185875af1925050503d8060008114612420576040519150601f19603f3d011682016040523d82523d6000602084013e612425565b606091505b5091509150612435828286612454565b92505050949350505050565b600080823b905060008111915050919050565b60608315612464578290506124b4565b6000835111156124775782518084602001fd5b816040517f08c379a00000000000000000000000000000000000000000000000000000000081526004016124ab9190612b03565b60405180910390fd5b9392505050565b6000813590506124ca816132d1565b92915050565b6000813590506124df816132e8565b92915050565b6000815190506124f4816132e8565b92915050565b600081519050612509816132ff565b92915050565b60008135905061251e81613316565b92915050565b6000813590506125338161332d565b92915050565b6000815190506125488161332d565b92915050565b60006020828403121561256457612563613011565b5b6000612572848285016124bb565b91505092915050565b60006020828403121561259157612590613011565b5b600061259f848285016124e5565b91505092915050565b6000602082840312156125be576125bd613011565b5b60006125cc848285016124fa565b91505092915050565b6000602082840312156125eb576125ea613011565b5b60006125f98482850161250f565b91505092915050565b60006020828403121561261857612617613011565b5b600061262684828501612524565b91505092915050565b60006020828403121561264557612644613011565b5b600061265384828501612539565b91505092915050565b6000806040838503121561267357612672613011565b5b600061268185828601612524565b9250506020612692858286016124bb565b9150509250929050565b600080604083850312156126b3576126b2613011565b5b60006126c185828601612524565b92505060206126d285828601612524565b9150509250929050565b6000806000606084860312156126f5576126f4613011565b5b600061270386828701612524565b935050602061271486828701612524565b9250506040612725868287016124d0565b9150509250925092565b61273881612e30565b82525050565b61274781612e42565b82525050565b600061275882612ce9565b6127628185612cff565b9350612772818560208601612f08565b80840191505092915050565b61278781612e9c565b82525050565b61279681612ec0565b82525050565b6127a581612ee4565b82525050565b60006127b682612cf4565b6127c08185612d0a565b93506127d0818560208601612f08565b6127d981613016565b840191505092915050565b60006127f1602683612d0a565b91506127fc82613027565b604082019050919050565b6000612814601b83612d0a565b915061281f82613076565b602082019050919050565b6000612837602683612d0a565b91506128428261309f565b604082019050919050565b600061285a600983612d0a565b9150612865826130ee565b602082019050919050565b600061287d602183612d0a565b915061288882613117565b604082019050919050565b60006128a0602083612d0a565b91506128ab82613166565b602082019050919050565b60006128c3601d83612d0a565b91506128ce8261318f565b602082019050919050565b60006128e6601283612d0a565b91506128f1826131b8565b602082019050919050565b6000612909602a83612d0a565b9150612914826131e1565b604082019050919050565b600061292c600c83612d0a565b915061293782613230565b602082019050919050565b600061294f603683612d0a565b915061295a82613259565b604082019050919050565b6000612972601483612d0a565b915061297d826132a8565b602082019050919050565b61299181612e92565b82525050565b60006129a3828461274d565b915081905092915050565b60006020820190506129c3600083018461272f565b92915050565b60006040820190506129de600083018561272f565b6129eb602083018461272f565b9392505050565b6000606082019050612a07600083018661272f565b612a14602083018561272f565b612a216040830184612988565b949350505050565b6000604082019050612a3e600083018561272f565b612a4b6020830184612988565b9392505050565b6000602082019050612a67600083018461273e565b92915050565b6000602082019050612a82600083018461277e565b92915050565b6000608082019050612a9d600083018761277e565b612aaa6020830186612988565b612ab76040830185612988565b612ac46060830184612988565b95945050505050565b6000602082019050612ae2600083018461278d565b92915050565b6000602082019050612afd600083018461279c565b92915050565b60006020820190508181036000830152612b1d81846127ab565b905092915050565b60006020820190508181036000830152612b3e816127e4565b9050919050565b60006020820190508181036000830152612b5e81612807565b9050919050565b60006020820190508181036000830152612b7e8161282a565b9050919050565b60006020820190508181036000830152612b9e8161284d565b9050919050565b60006020820190508181036000830152612bbe81612870565b9050919050565b60006020820190508181036000830152612bde81612893565b9050919050565b60006020820190508181036000830152612bfe816128b6565b9050919050565b60006020820190508181036000830152612c1e816128d9565b9050919050565b60006020820190508181036000830152612c3e816128fc565b9050919050565b60006020820190508181036000830152612c5e8161291f565b9050919050565b60006020820190508181036000830152612c7e81612942565b9050919050565b60006020820190508181036000830152612c9e81612965565b9050919050565b6000602082019050612cba6000830184612988565b92915050565b6000604082019050612cd56000830185612988565b612ce26020830184612988565b9392505050565b600081519050919050565b600081519050919050565b600081905092915050565b600082825260208201905092915050565b6000612d2682612e92565b9150612d3183612e92565b9250827fffffffffffffffffffffffffffffffffffffffffffffffffffffffffffffffff03821115612d6657612d65612f84565b5b828201905092915050565b6000612d7c82612e92565b9150612d8783612e92565b925082612d9757612d96612fb3565b5b828204905092915050565b6000612dad82612e92565b9150612db883612e92565b9250817fffffffffffffffffffffffffffffffffffffffffffffffffffffffffffffffff0483118215151615612df157612df0612f84565b5b828202905092915050565b6000612e0782612e92565b9150612e1283612e92565b925082821015612e2557612e24612f84565b5b828203905092915050565b6000612e3b82612e72565b9050919050565b60008115159050919050565b6000612e5982612e30565b9050919050565b6000612e6b82612e30565b9050919050565b600073ffffffffffffffffffffffffffffffffffffffff82169050919050565b6000819050919050565b6000612ea782612eae565b9050919050565b6000612eb982612e72565b9050919050565b6000612ecb82612ed2565b9050919050565b6000612edd82612e72565b9050919050565b6000612eef82612ef6565b9050919050565b6000612f0182612e72565b9050919050565b60005b83811015612f26578082015181840152602081019050612f0b565b83811115612f35576000848401525b50505050565b6000612f4682612e92565b91507fffffffffffffffffffffffffffffffffffffffffffffffffffffffffffffffff821415612f7957612f78612f84565b5b600182019050919050565b7f4e487b7100000000000000000000000000000000000000000000000000000000600052601160045260246000fd5b7f4e487b7100000000000000000000000000000000000000000000000000000000600052601260045260246000fd5b7f4e487b7100000000000000000000000000000000000000000000000000000000600052603260045260246000fd5b600080fd5b6000601f19601f8301169050919050565b7f4f776e61626c653a206e6577206f776e657220697320746865207a65726f206160008201527f6464726573730000000000000000000000000000000000000000000000000000602082015250565b7f536166654d6174683a206164646974696f6e206f766572666c6f770000000000600082015250565b7f416464726573733a20696e73756666696369656e742062616c616e636520666f60008201527f722063616c6c0000000000000000000000000000000000000000000000000000602082015250565b7f6465763a207775743f0000000000000000000000000000000000000000000000600082015250565b7f536166654d6174683a206d756c7469706c69636174696f6e206f766572666c6f60008201527f7700000000000000000000000000000000000000000000000000000000000000602082015250565b7f4f776e61626c653a2063616c6c6572206973206e6f7420746865206f776e6572600082015250565b7f416464726573733a2063616c6c20746f206e6f6e2d636f6e7472616374000000600082015250565b7f77697468647261773a206e6f7420676f6f640000000000000000000000000000600082015250565b7f5361666545524332303a204552433230206f7065726174696f6e20646964206e60008201527f6f74207375636365656400000000000000000000000000000000000000000000602082015250565b7f6d6967726174653a206261640000000000000000000000000000000000000000600082015250565b7f5361666545524332303a20617070726f76652066726f6d206e6f6e2d7a65726f60008201527f20746f206e6f6e2d7a65726f20616c6c6f77616e636500000000000000000000602082015250565b7f6d6967726174653a206e6f206d69677261746f72000000000000000000000000600082015250565b6132da81612e30565b81146132e557600080fd5b50565b6132f181612e42565b81146132fc57600080fd5b50565b61330881612e4e565b811461331357600080fd5b50565b61331f81612e60565b811461332a57600080fd5b50565b61333681612e92565b811461334157600080fd5b5056fea26469706673582212206776d53cfc1838a8a9bcbf2c3013d198143918fe416d9e2ed31c11a9a75e697964736f6c63430008060033",
  "linkReferences": {},
  "deployedLinkReferences": {}
}